:020000040800F2
:100000004009002079020008D7270008372500089A
:10001000D52700086F040008FD3700080000000025
:10002000000000000000000000000000DB270008C6
:100030002B05000800000000D9270008DD27000874
:10004000930200089302000893020008930200083C
:1000500093020008930200082D0500086D050008B2
:100060009302000893020008BD050008710400080F
:100070007D04000893020008930200089302000820
:100080009302000800000000930200089302000899
:10009000930200089302000893020008FD0500087F
:1000A00093020008592800089302000893020008F0
:1000B00093020008930200089302000893020008CC
:1000C00093020008930200089302000893020008BC
:1000D0009302000885360008F137000893020008F3
:1000E000930200089302000893020008930200089C
:1000F0009302000893020008930200080000000029
:1001000000000000930200080000000093020008B5
:100110009302000800000000930200089302000808
:10012000930200089302000893020008930200085B
:100130009302000800000000000000009302000885
:100140009302000893020008000000000000000075
:10015000000000000000000000000000000000009F
:1001600000000000000000000000000093020008F2
:1001700093020008000000000000000000000000E2
:1001800000000000930200080000000000000000D2
:10019000000000000000000000000000000000005F
:1001A0000000000000000000930200089302000815
:1001B0009302000893020008930200080000000068
:1001C0000000000093020008000000000000000092
:1001D000930200089302000800F002F800F03CF8D7
:1001E0000AA090E8000C82448344AAF10107DA4592
:1001F00001D100F031F8AFF2090EBAE80F0013F0A8
:10020000010F18BFFB1A43F001031847A83900007B
:10021000C8390000103A24BF78C878C1FAD852070C
:1002200024BF30C830C144BF04680C607047000070
:100230000023002400250026103A28BF78C1FBD8EF
:10024000520728BF30C148BF0B6070471FB503F08D
:100250008BFC1FBD10B510BD00F0CFF81146FFF7A5
:10026000F5FF03F059FB00F0EDF803B4FFF7F2FFE0
:1002700003BC00F0F5F80000094880470948004732
:10028000FEE7FEE7FEE7FEE7FEE7FEE7FEE7FEE746
:10029000FEE7FEE704480549054A064B70470000A3
:1002A00049280008D9010008400300204009002027
:1002B000400500204005002053EA020C00F0698050
:1002C0002DE9F04B4FF00006002B1FBFB3FA83F56A
:1002D00003FA05F424FA05F65E4012BF1643B2FA9B
:1002E00082F502FA05F4C5F120051EBF22FA05FCCD
:1002F00044EA0C04203556EA044C4FEA144418BF73
:10030000641C4FF000084FF00009904271EB030CA1
:1003100039D3002919BFB1FA81F701FA07F6B0FA0B
:1003200080F700FA07F6C7F120071EBF20FA07FC86
:1003300046EA0C062037B6FBF4FCA7EB0507103F96
:1003400007F01F0BCBF120060CFA0BFB2CFA06F67C
:1003500044BFB3460026202FA4BF5E464FF0000BDB
:100360005BEA060C08BF4FF0010B19EB0B09ABFB66
:10037000027C48EB0608C01B06FB02CC0BFB03CC3F
:1003800071EB0C01C1E70B46024641464846BDE809
:10039000F08B13B54FF000004FF00001AFF3008079
:1003A000BDE81C4070474FF0000200B5134694466C
:1003B0009646203922BFA0E80C50A0E80C50B1F1BD
:1003C0002001BFF4F7AF090728BFA0E80C5048BFD1
:1003D0000CC05DF804EB890028BF40F8042B08BF6F
:1003E000704748BF20F8022B11F0804F18BF00F86B
:1003F000012B7047704770477047754600F02CF826
:10040000AE4605006946534620F00700854618B001
:1004100020B5FFF73FFFBDE820404FF000064FF04A
:1004200000074FF000084FF0000B21F00701AC4629
:10043000ACE8C009ACE8C009ACE8C009ACE8C00948
:100440008D46704710B50446AFF300802046BDE8E6
:100450001040FFF70ABF000000487047DC02002090
:1004600001491820ABBEFEE7260002007047FEE7F8
:10047000014800F060B900007C020020014800F053
:100480005AB900001C0200200D4902688A4201D2BC
:100490000C4901E00B492031D2B21423083AB2FBD7
:1004A000F3F2436C02F01F0223F00303194481644A
:1004B00004498031C1640121914001657047000009
:1004C00008040240000802400179074A02EB810259
:1004D0004265054A4432491E826501F01F0201212E
:1004E0009140C16570470000FC08024030B5D0E97A
:1004F00013456560446D14B1D0E91645656090F808
:10050000444004F01F050124AC40056C6C60046895
:1005100063608368102B036803D099600068C26031
:1005200030BD9A600068C16030BD704710B50120D1
:1005300000F018FA094900200A781AB9084A127816
:10054000012A05D007490A78012A00D1087010BD98
:1005500001220A7004494880888010BD01000020F3
:10056000000000201D0000202400002010B5022003
:1005700000F0F8F90C480021027872B90B4A1278A1
:10058000022A0AD101220270094841F288334288C6
:100590009A1A084B1A804180818007480278012A04
:1005A00000D1017010BD00000200002000000020FA
:1005B00024000020080000201E00002010B510209C
:1005C00000F0D0F9094900200A7842B9084A1278A7
:1005D000042A04D101220A7006494880888006490D
:1005E0000A78012A00D1087010BD00000300002025
:1005F00000000020240000201F00002010B58020F3
:1006000000F0B0F90C480021027872B90B4A127858
:10061000032A0AD101220270094841F28833428834
:100620009A1A084B1A804180818007480278012A73
:1006300000D1017010BD0000040000200000002067
:10064000240000200A0000202000002072B6FEE7EF
:1006500010B590F8253000210122022B03D004218F
:10066000C163012122E003681C6824F00E041C60B1
:10067000836C1C6824F480741C6003681C6824F07C
:1006800001041C6090F84430046C03F01F0302FA6C
:1006900003F36360D0E913345C60436D33B11C68CD
:1006A00024F480741C60D0E916345C6080F8252046
:1006B000002280F82420084610BD70B590F825204F
:1006C000002401212346022A07D00422C26380F8B5
:1006D000251080F82430012429E00268156825F0EF
:1006E0000E0515600268156825F001051560826C1D
:1006F000156825F48075156090F84420056C02F0AB
:100700001F0201FA02F26A60D0E913255560426DBA
:1007100032B1156825F480751560D0E9162555604D
:1007200080F8251080F82430816B01B1884720467D
:1007300070BDC06B7047F0B4016C0C6801680D6847
:1007400090F8442002F01F06042202FA06F3234226
:1007500011D06B070FD50B689B0603D40B6823F0F1
:1007600004030B6090F8441001F01F018A40016CF3
:100770004A60016B1DE0022303FA06F727424FF09F
:10078000000C4FF0010218D0AF0716D50C68A40674
:1007900005D40C6824F00A040C6080F8252090F839
:1007A000441001F01F018B40016C4B6080F824C0A5
:1007B000C16A00291AD0F0BC08470823B34023427D
:1007C00014D02B0712D50B6823F00E030B6090F8A2
:1007D0004410036C01F01F0102FA01F15960C26379
:1007E00080F8252080F824C0416BE2E7F0BC704718
:1007F00070B504000CD02B4A21681420914209D214
:10080000294A0A44B2FBF0F08000606427480AE0FD
:10081000012070BD234A52420A44B2FBF0F080002E
:100820006064204808382064022084F825000A68A3
:1008300047F6F0708243D4E902031843D4E9043543
:100840002B431843A3691843E3691843236A1843E9
:10085000104308602046FFF717FEA0680025B0F59A
:10086000804F00D16560A16C20790860D4E9130144
:1008700041606068401E032808D82046FFF724FE28
:10088000606D0560D4E91601416002E06565A5650B
:10089000E565E563012084F8250084F824500020F4
:1008A00070BD000008040240F8FFFDBF00000240D8
:1008B00070B5044690F82400002501280CD00120D2
:1008C00084F8240094F825600020012E06D084F8D6
:1008D00024000225284670BD022070BD022684F83F
:1008E0002560E0632068066826F001060660204661
:1008F000FFF7FCFD206B00282068016802D041F062
:100900000E0106E021F0040101602068016841F059
:100910000A010160A06C0168C90303D5016841F4B4
:1009200080710160606D18B1016841F480710160EF
:100930002068016841F001010160CBE770B5044611
:1009400000F04AF90546601C02D00448406804449F
:1009500000F042F9401BA042FAD370BD3C000020D9
:1009600070470000044910B50A68024202D00860CE
:10097000FFF7F6FF10BD0000140401402DE9F04F11
:10098000DFF82092002301260324A9F1040B85B08F
:100990000F2709F1040AABF1040EFAE006FA03F599
:1009A0002A407CD091F804C00CF0030CBCF1010F7C
:1009B00002D0BCF1020F26D1D0F808C0CDF800C09B
:1009C0004FEA430C04FA0CF8CDF810C0DDF800C073
:1009D0002CEA080CCDF800C0D1F80C80DDF810C06E
:1009E00008FA0CF8DDF800C048EA0C08C0F80880E6
:1009F000D0F804C02CEA050C0D79C5F300159D4014
:100A000045EA0C0545600D79ED43AD070ED0C5688C
:100A10004FEA430804FA08FC25EA0C05D1F808C09F
:100A20000CFA08FC4CEA050CC0F80CC00D7905F076
:100A30000305022D16D1DD0800EB850CCDF808C0AA
:100A4000DCF820805D074FEAD56C07FA0CF528EA40
:100A500005080D6905FA0CF5DDF808C045EA08053A
:100A6000CCF8205005684FEA430CCDF808C004FAD2
:100A70000CFC25EA0C0591F804C00CF00308DDF825
:100A800008C008FA0CF848EA0508C0F800804D686C
:100A900015F4403F7CD0444DD5F860C000E077E0CD
:100AA0004CF0010CC5F860C02D6E23F0030C05F06E
:100AB000010500953D4D65440295AD684FEA837C84
:100AC0004FEA1C7807FA08FC25EA0C05B0F1904FB4
:100AD00006D0DFF8DCC0604505D14FF0010C20E006
:100AE0004FF0000C1DE0DFF8CCC0604502D14FF0A4
:100AF000020C16E0DFF8C0C0604502D14FF0030CD5
:100B00000FE0DFF8B8C0604502D14FF0040C08E0F8
:100B1000DFF8ACC0604502D14FF0050C01E04FF0AA
:100B2000060C0CFA08FC4CEA050C029DC5F808C03E
:100B3000D9F80050CC46D1F8048095435FEAC82824
:100B400000D51543CCF80050DAF80050D446D1F85F
:100B5000048095435FEA882800D51543CCF80050FF
:100B6000DBF80050DC46D1F8048095435FEA883812
:100B700000D51543CCF80050DEF80050F446D1F80B
:100B8000048095435FEAC83800D51543CCF800507F
:100B90005B1C0A6832FA03F57FF400AF05B0BDE8CC
:100BA000F08F0000080401400010024000000140E6
:100BB0000004004800080048000C004800100048ED
:100BC000001400480069084000D0012070470AB1B5
:100BD00081617047816270470148806870470000FA
:100BE0003C000020024881684268114481607047DF
:100BF0003C00002010B50024032000F073F8002012
:100C000000F008F808B1012401E000F025F82046C2
:100C100010BD000070B50E4E05460024706898B1F6
:100C20004FF47A71B1FBF0F00A490968B1FBF0F0BA
:100C300000F062FD40B9102D06D200222946501E58
:100C400000F030F8356000E00124204670BD00005F
:100C50003C000020480000200A4882B0016E41F0AC
:100C600001010166016E01F001010091816D41F009
:100C700080518165806D00F08050009002B000F0DE
:100C8000A1B8000000100240002809DB00F01F029C
:100C9000012191404009800000F1E020C0F80011DE
:100CA00070470000F0B40E4B1B680C46C3F30223E0
:100CB000C3F10705042D00D90425191D072901D208
:100CC000002300E0DB1E012606FA05F1491E214043
:100CD00099409E40761E16403143F0BC02F08FBD15
:100CE0000CED00E0064900F0070208684FF6FF032C
:100CF000184040EA0220034A104308607047000091
:100D00000CED00E00000FA052B492C4B0A6832215B
:100D10004A432B4940B1B0F5007F086829D020F440
:100D2000C06040F480602CE00868C0F341200228D5
:100D300004D051F8800F20F4807022E0D1F88000B8
:100D400020F48070C1F88000086820F4C06040F48E
:100D500000700860B2FBF3F0401C00E0401E4A69DE
:100D6000520501D50028F9D1486940050AD503206C
:100D70007047C0F34120022806D051F8800F40F49C
:100D80008070086000207047D1F8800040F48070C7
:100D9000C1F88000086820F4C06040F4007008606A
:100DA000B2FBF3F0401C00E0401E4A695205DBD55F
:100DB0000028F9D1D8E700004800002040420F0089
:100DC000007000400248816841F4804181607047B2
:100DD000007000402DE9F8430446006800269D4D50
:100DE00000035ED5A86D0027C00008D4A86D40F0B0
:100DF0008050A865A86D012700F080500090DFF8B2
:100E00005892D9F8001041F48071C9F80010FFF72A
:100E1000E3FE804606E000BFFFF7DEFEA0EB080021
:100E200002282BD8D9F80000C005F5D5D5F89000D8
:100E300010F4407014D0216C814211D0D5F890008C
:100E4000D5F8901020F4407041F48031C5F890102E
:100E5000D5F8901021F48031C5F89010C5F89000B5
:100E6000C00711D0FFF7B8FE804641F2883907E08D
:100E7000FFF7B2FEA0EB0801494501D903260BE0BC
:100E8000D5F890008007F3D5D5F89000216C20F4B8
:100E900040700843C5F890001FB1A86D20F0805045
:100EA000A8652078C00707D0D5F88800616820F0D1
:100EB00003000843C5F888002078800707D5D5F8D7
:100EC0008800A16820F00C000843C5F8880020784D
:100ED000400707D5D5F88800E16820F030000843C6
:100EE000C5F888002078000707D5D5F88800216963
:100EF00020F0C0000843C5F888002078800607D598
:100F0000D5F88800616920F440600843C5F888007E
:100F10002078400607D5D5F88800A16920F4405014
:100F20000843C5F888002078000607D5D5F8880062
:100F3000E16920F440400843C5F888002088C005D6
:100F400007D5D5F88800216A20F440300843C5F859
:100F500088002088800507D5D5F88800616A20F4CC
:100F600040200843C5F88800208840050FD5D5F8F3
:100F70008800A16A20F440100843C5F88800A06AE0
:100F8000B0F5801F03D1E86840F48010E860208845
:100F900000050FD5D5F88800E16A20F44000084329
:100FA000C5F88800E06AB0F5800F03D1E86840F426
:100FB0008010E8602088C0040FD5D5F88800216B28
:100FC00020F040700843C5F88800206BB0F1807FA6
:100FD00003D1E86840F48010E86020884FF0006199
:100FE00080040ED5D5F88800626B20F04060104375
:100FF000C5F88800606B884203D1E86840F480102F
:10100000E860208840040ED5D5F88800A26B20F057
:1010100040601043C5F88800A06B884203D1E8689F
:1010200040F48010E860208800040FD5D5F88800CF
:10103000E16B20F040500843C5F88800E06BB0F148
:10104000805F03D1E86840F48030E8603046BDE856
:10105000F883000000100240007000402DE9F047C6
:101060000E4605004FF0000725D0DFF8AC81D8F818
:10107000000000F00F00B0420CD2D8F8001021F0B0
:101080000F013143C8F80010D8F8000000F00F003D
:10109000B04210D12968614CC80741F2883A5AD051
:1010A0006868DFF87C91032808D0022820682DD0DA
:1010B000400500282CDB0120BDE8F0872068800176
:1010C000F9D5E06800F00302E068C0F30310401CAB
:1010D000032A19D0534A00BFB2FBF0F0E268C2F312
:1010E00006225043E268C2F34162521C5200B0FB38
:1010F000F2F0484517D9A06810F0F00F0CD088071F
:1011000011D5A86840B10EE0474AE5E78003D0E773
:1011100000F0B6F8484506D9A06820F0F00040F08D
:101120008000A0608027A068696820F00300084361
:10113000A060FFF751FD814606E000BFFFF74CFDC0
:10114000A0EB090151453AD8A068696800F00C008D
:10115000B0EB810FF2D12868810714D5400703D581
:10116000A06840F4E060A0602878000705D5A0687A
:1011700020F4605040F4E060A060A068A96820F00E
:10118000F000084304E0802F03D1A06820F0F000B5
:10119000A060D8F80010404601F00F01B14216D906
:1011A000016821F00F0131430160FFF715FD07468B
:1011B00007E000BFFFF710FDC11B514501D9032017
:1011C0007AE7D8F8000000F00F00B042F2D128789A
:1011D000400705D5A068E96820F4E0600843A060F6
:1011E0002878000706D5A068296920F4605040EAF5
:1011F000C100A06000F044F8A1680C4AC1F30311DB
:10120000515C01F01F01C8400949086009480068A5
:10121000BDE8F047FFF7FEBC00200240001002408E
:1012200000B4C4040024F40000127A009A3B0008C1
:10123000480000203C0000200548064900688968F5
:10124000054AC1F30221515C01F01F01C8407047FB
:101250004800002000100240AA3B0008054806494B
:1012600000688968054AC1F3C221515C01F01F0181
:10127000C84070474800002000100240AA3B000808
:10128000184910B58868C0F381021748012A0BD0AD
:101290008A684310C2F38102022A06D08A68C2F328
:1012A0008102032A03D0002010BD184610BDCA6871
:1012B00002F00304CA68C2F30312521C032C02D0CA
:1012C000B0FBF2F001E0B3FBF2F0CA68C968C2F308
:1012D00006225043C1F34161491C4900B0FBF1F0C3
:1012E00010BD0000001002400024F4002DE9F84376
:1012F00004007AD02078FA4DC00747D0A868E96882
:1013000000F00C0001F003010C2802D0082817D0CF
:1013100001E0032914D06068B0F5803F17D0B0F524
:10132000A02F286817D020F480302860286820F487
:10133000802028606068E0B1FFF74EFC064614E0AC
:101340002868800322D560680028D2D01EE0286873
:1013500040F48030EDE740F480202860F7E700BFDC
:10136000FFF73AFC801B642870D828688003F7D503
:101370000CE0FFF731FC064605E000BFFFF72CFC50
:10138000801B6428F0D828688003F7D42078800771
:101390004CD5A868E96800F00C0001F003010C28A6
:1013A00002D004280DD001E002290AD0E06800280C
:1013B00028682BD040F480702860FFF70DFC0646AB
:1013C00019E02868400502D5E068002891D06868D7
:1013D000217C20F0FE4040EA01606860C14800685E
:1013E000FFF718FC002800D120E076E1FFF7F4FBBE
:1013F000801B0228B8D828684005F7D56868217C8A
:1014000020F0FE4040EA016068600FE020F4807048
:101410002860FFF7E1FB064605E000BFFFF7DCFBB5
:10142000801B0228A0D828684005F7D42078000740
:1014300029D560690028D5F8940013D040F0010048
:10144000C5F89400FFF7C8FB064606E090E000BF31
:10145000FFF7C2FB801B022886D8D5F894008007CE
:10146000F6D510E020F00100C5F89400FFF7B4FBBA
:10147000064604E0FFF7B0FB801B022878D8D5F8B9
:1014800094008007F6D42078400761D5A86D002627
:10149000C00008D4A86D40F08050A865A86D012652
:1014A00000F08050009090480168C90511D401688F
:1014B000804641F480710160FFF78EFB074604E02F
:1014C000FFF78AFBC01B022852D8D8F80000C005DD
:1014D000F6D5A068012815D00528D5F8900016D0BB
:1014E00020F00100C5F89000D5F8900020F004002D
:1014F000C5F89000A06841F28838B8B1FFF76CFBDE
:1015000007460EE0D5F8900040F00100F0E740F00B
:101510000400C5F89000F5E7FFF75EFBC11B4145ED
:1015200026D8D5F890008007F6D50CE0FFF754FBDD
:10153000074604E0FFF750FBC11B414518D8D5F81A
:1015400090008007F6D41EB1A86D20F08050A865E9
:101550002078800629D5A0690028D5F8980013D0F6
:1015600040F00100C5F89800FFF736FB064606E09C
:1015700077E000BFFFF730FB801B022877D8D5F853
:1015800098008007F6D510E020F00100C5F898001B
:10159000FFF722FB064604E0FFF71EFB801B022834
:1015A00065D8D5F898008007F6D4E069F0B3A9684B
:1015B000C1F38101032961D00228286820F08070DE
:1015C00028600BD0E86820F00300E860E86847492D
:1015D0000840E860FFF700FB04464BE0FFF7FCFA29
:1015E000064604E0FFF7F8FA801B02283FD8286877
:1015F0008001F7D4F4E908016FF00F0202EB01114A
:101600000843218A5204490802EB4151A26841EA89
:1016100002210843217D4FF07E42490802EB4161DF
:101620000843217B40EAC160E96800E062E0304A9B
:1016300011400843E860286840F080702860E8683E
:1016400040F08070E860FFF7C7FA044605E000BF8D
:10165000FFF7C2FA001B022809D828688001F7D5D5
:1016600048E004E0FFF7B8FA001B022802D9032083
:10167000BDE8F88328688001F4D43BE00128F7D066
:10168000E868226A00F00301914226D1616A00F005
:10169000F0020901103991421FD1A26A00F4FE4103
:1016A000B1EB022F19D194F82C2000F07841B1EB66
:1016B000C26F12D1218E00F4C00249084905A1F57C
:1016C0000011914209D194F8341000F0C06049082B
:1016D0004906A1F1007181420CD00120C8E7000049
:1016E000001002403C00002000700040FFFFEEFEB2
:1016F0000C809F010020BBE710B5401EB0F1807F39
:1017000001D3012010BD4FF0E02460610F2160176C
:1017100002F075F80020A06107202061002010BDB4
:101720007047704770470000F0B590F83C20012AE0
:101730004AD0012280F83C20CA688B6822F44072AB
:101740001A434B6822F480621A430B6822F4006249
:101750001A430B6922F480521A434B6922F4005257
:101760001A430B6B22F480421A430B8B22F4702233
:1017700042EA0342154C03680026154DA34201D0EE
:10178000AB4203D1CF6922F080523A43A34201D049
:10179000AB4214D10F8D22F4700242EA07520F6A55
:1017A00022F080723A434F6A22F000723A43A34219
:1017B00001D0AB4203D1C96A22F000520A435A64F5
:1017C00080F83C600020F0BD0220F0BD002C0140FC
:1017D000003401407047704770470000F0B590F842
:1017E0003C20012A3AD0012580F83C50022280F8A2
:1017F0003D2003685A689C68194E1A4FB34201D0C5
:10180000BB4204D122F4700C4A6842EA0C02DFF8B1
:1018100058C002EA0C02D1F800C04CEA020CC3F82E
:1018200004C00268B2420DD0B2F1804F0AD00F4B13
:101830009A4207D00E4B9A4204D0BA4202D00D4BC6
:101840009A4204D1896824F080031943916080F89A
:101850003D50002180F83C100846F0BD0220F0BD4C
:10186000002C0140003401408FFFFFFD00040040C8
:1018700000080040004001407047000090F83D1013
:10188000012901D001207047022180F83D10016834
:10189000CA6842F00102CA600068104988420ED04E
:1018A000B0F1804F0BD00E49884208D00D498842D4
:1018B00005D00D49884202D00C49884207D1816881
:1018C0000B4A1140062906D0B1F5803F03D00168CC
:1018D00041F001010160002070470000002C014030
:1018E0000004004000080040003401400040014076
:1018F00007000100704770B50446006801694FF0A9
:101900000005C943890715D4C168C943890711D4A3
:10191000E91E016101202077206880698007204648
:1019200002D0FFF7E7FF04E000F00EF9204600F0D8
:10193000EDF9257720680169C943490717D4C168C3
:10194000C943490713D46FF00401016102202077D5
:101950002068806910F4407F204602D0FFF7CAFF5C
:1019600004E000F0F1F8204600F0D0F92577206877
:101970000169C943090716D4C168C943090712D4CC
:101980006FF008010161042020772068C06980079A
:10199000204602D0FFF7AEFF04E000F0D5F8204665
:1019A00000F0B4F9257720680169C943C90617D446
:1019B000C168C943C90613D46FF010010161082042
:1019C00020772068C06910F4407F204602D0FFF7DE
:1019D00091FF04E000F0B8F8204600F097F9257771
:1019E00020680169C943C90708D1C168C943C9074B
:1019F00004D1891E0161204600F008FA20680169BF
:101A0000C943090609D4C168C943090605D46FF062
:101A1000800101612046FFF784FE20680169C94307
:101A2000C90509D4C168C943090605D46FF480719A
:101A300001612046FFF774FE20680169C943490629
:101A400009D4C168C943490605D46FF0400101615A
:101A5000204600F0DCF920680169C943890609D4F1
:101A6000C168C943890605D46FF020010161204691
:101A7000FFF758FE20680169C943C90209D4C1684B
:101A8000C943C90205D46FF4801101612046FFF7F4
:101A9000A2FE20680169C943890209D4C168C9430B
:101AA000890205D46FF4001101612046FFF792FE10
:101AB00020680169C943490209D4C168C943490280
:101AC00005D46FF4800101612046FFF785FE206890
:101AD0000169C94309020BD4C168C943090207D48B
:101AE0006FF4000101612046BDE87040FFF7C4BEFD
:101AF00070BD000010B586B0044614216846FEF79C
:101B000052FC0F492068884217D10E48C16C41F041
:101B10000101C164C06C694600F0010005904FF4FA
:101B20004070009002200190002002900390062057
:101B300004904FF09040FEF721FF06B010BD00006A
:101B4000002C014000100240704770B5044690F828
:101B50003C0000260D4601280BD0012084F83C00F3
:101B60000C2A4AD007DC82B1042A20D0082A06D1E8
:101B700031E0022070BD102A53D0142A63D0012610
:101B8000002084F83C00304670BD206801F07AF8EF
:101B90002068816941F0080181612068816921F034
:101BA00004018161206881692A69114311E020687C
:101BB00001F0B6F82068816941F400618161206814
:101BC000816921F480618161206881692A6941EA23
:101BD00002218161D4E7206801F0EAF82068C16938
:101BE00041F00801C1612068C16921F00401C161AF
:101BF0002068C1692A69114311E0206801F020F9C9
:101C00002068C16941F40061C1612068C16921F4A3
:101C10008061C1612068C1692A6941EA0221C1610C
:101C2000AEE7206801F054F92068016D41F0080129
:101C300001652068016D21F0040101652068016DD6
:101C40002A69114311E0206801F07AF92068016DDA
:101C500041F4006101652068016D21F48061016536
:101C60002068016D2A6941EA0221016588E710B503
:101C7000040003D094F83D0010B107E0012010BD2E
:101C8000002084F83C00204600F022F8022084F86E
:101C90003D00211D206800F08FFF012084F84800DE
:101CA00084F83E0084F83F0084F8400084F8410046
:101CB00084F8420084F8430084F8440084F8450026
:101CC00084F8460084F8470084F83D00002010BDE9
:101CD00008B500680B49884212D10B48016E41F4E7
:101CE00000610166006E002200F400600090012196
:101CF0001920FEF7D7FFBDE808401920FEF7C4BF42
:101D000008BD0000002C0140001002407047000098
:101D100030B50446022269B1042912D0082917D02F
:101D20000C291CD0102921D094F84300012824D07C
:101D3000012030BD94F83E000128F9D184F83E20FE
:101D40001DE094F83F000128F2D184F83F2016E00E
:101D500094F840000128EBD184F840200FE094F87B
:101D600041000128E4D184F8412008E094F84200C1
:101D70000128DDD184F8422001E084F843200122CB
:101D8000206800F071FF194B20681949194A9842E0
:101D900009D0884207D0904205D0174DA84202D002
:101DA000164DA84203D1456C45F4004545642068B2
:101DB00098420CD0B0F1804F09D0114B984206D018
:101DC000104B984203D0884201D0904207D18168DD
:101DD0000D4A1140062906D0B1F5803F03D00168B5
:101DE00041F001010160002030BD0000002C0140E5
:101DF00000340140004001400044014000480140DF
:101E000000040040000800400700010070477047D0
:101E100090F88010012918D0012180F88010242129
:101E2000C0F8841050F8641B0A680B6823F00103A3
:101E30000B6022F000510022026050F8643C1960EF
:101E400020210162027710467047022070477047D8
:101E5000704770B5044690F8800001281DD001201D
:101E600084F880002420C4F8840020680568026893
:101E700022F0010202602068826822F060620A4358
:101E80008260204601F094F8206805602020C4F8A4
:101E90008400002084F8800070BD022070BD70B501
:101EA000044690F8800001281DD0012084F88000AD
:101EB0002420C4F8840020680568026822F001022A
:101EC00002602068826822F060420A4382602046F5
:101ED00001F06EF8206805602020C4F8840000201E
:101EE00084F8800070BD022070BD7047704770B5E7
:101EF0000446D0F88400D4F88860216889684FF0DF
:101F00001005090618D5212816D12068083050E898
:101F1000001F21F0800140E80012002AF5D1A06FD7
:101F200038B1FEF795FB20B1A06FFEF702FC202828
:101F300021D0204601F09EF920688068400618D51F
:101F4000222E16D12068083050E8001F21F04001F1
:101F500040E80012002AF5D1E06F38B1FEF778FBB7
:101F600020B1E06FFEF7E5FB202804D0204601F009
:101F700057F9002070BDC4F88C50032070BD704725
:101F80002DE9F04103680446D86919689A6840F65B
:101F90000F0528424FF0000509D186067ED501F0D5
:101FA000200602F080573E4378D0216F27E1A94EEA
:101FB000A94F16400F40374370D0C70709D0CF054F
:101FC00007D501271F62D4F88C3043F00103C4F811
:101FD0008C3083070AD5D30708D0276802233B62D9
:101FE000D4F88C3043F00403C4F88C3043070AD58E
:101FF000D30708D0276804233B62D4F88C3043F021
:102000000203C4F88C3003070CD501F020033343DE
:1020100008D0266808233362D4F88C3043F00803D4
:10202000C4F88C3003050BD54B0109D526684FF455
:1020300000633362D4F88C3043F02003C4F88C3052
:10204000D4F88C30002B3AD0800609D501F020005E
:1020500002F08051084303D0216F09B12046884720
:10206000D4F88C0021688968490602D410F0280F42
:1020700027D0204601F0D4F82068806840061BD5A0
:102080002068083050E8001F21F0400140E80012AD
:10209000002AF5D1E06F78B1704900E017E0816364
:1020A000E06FFEF70AFB002809D0E06F816B00E0CB
:1020B0002046BDE8F04108472046FFF760FFBDE835
:1020C000F0812046FFF75BFFC4F88C50F7E7E76E1E
:1020D0002026012F7ED1C7067CD5CF067AD51020C9
:1020E000186220688068400642D5E16F0868406841
:1020F0000004000CE3D0B4F85C208242DFD9A4F8DD
:102100005E000868006880062BD4206850E8001F35
:1021100021F4807140E80012002AF6D120680830CE
:1021200050E8001F21F0010140E80012002AF5D11B
:102130002068083050E8001F21F0400140E80012FC
:10214000002AF5D1C4F88860E566216851E8000FDF
:1021500020F0100041E80002002AF6D1E06FFEF7FF
:1021600077FAB4F85C00B4F85E10401A81B22CE043
:10217000B4F85C00B4F85E10401A81B2B4F85E00A6
:1021800000289CD000299AD0226852E8000F20F441
:10219000907042E80003002BF6D12E4BDB43206801
:1021A000083050E8002F1A4040E80027002FF6D1F1
:1021B000C4F88860E5662567226852E8000F20F0C1
:1021C000100042E80003002BF6D12046FFF73FFE47
:1021D00075E7FFE7C70209D5570207D54FF480100E
:1021E00018622046BDE8F041FFF780BE03060AD51D
:1021F00001F0800302F40002134304D0616F002950
:102200007FF456AF5BE7420611D54A060FD520464C
:10221000016851E8002F22F0400241E80023002B22
:10222000F6D1C0F88460456700F084F947E7020200
:1022300006D54A0004D52046BDE8F041FFF755BE5B
:10224000C001C5D50029C3DA2046BDE8F041FFF73B
:10225000FFBD000001000010200100041D31000836
:1022600010B5040003D0D4F8840010B107E00120B9
:1022700010BD002084F88000204600F027F82420BC
:10228000C4F884002068016821F001010160204643
:1022900001F008F80128EBD0A06A10B1204600F048
:1022A000A9FE2068416821F490414160206881685E
:1022B00021F02A0181602068016841F0010101607C
:1022C0002046BDE8104000F0F9BE00002DE9F043C3
:1022D00097B00646142111A8FEF765F84421684618
:1022E000FEF761F847493068474D002402274FF058
:1022F00007084FF0800988423DD10120CDE9000454
:102300006846FEF767FD08B1FEF7A0F9286E40F4B5
:1023100080402866286E00F480401690E86C40F0FB
:102320000200E864E86CCDE9127400F00200169037
:10233000C020CDE91448119011A93448FEF71EFBC6
:10234000344D334828601820C5E90104C5E9034924
:102350006C61AC61EC6128462C62FEF749FA08B169
:10236000FEF774F9F567002202212520AE62FEF720
:1023700099FC252040E0284988423FD168460097D3
:102380000294FEF727FD08B1FEF760F9A86D40F44E
:102390000030A865A86D00F400301690E86C40F09D
:1023A0000100E864E86CCDE9127400F001001690B9
:1023B0000C20CDE91448119011A94FF09040FEF780
:1023C000DDFA1348154D143828601A20C5E90104B8
:1023D000C5E903496C61AC61EC6128462C62FEF7EB
:1023E00007FA08B1FEF732F9F5670022022126202C
:1023F000AE62FEF757FC2620FEF746FC17B0BDE89C
:10240000F083000000380140001002400004004842
:102410001C0002401C020020004400407C020020FE
:1024200030B4D0F88830202B20D1E1B1DAB190F867
:102430008030012B1AD0012380F880300023C3663E
:102440000B4C0368A3420BD05B681B0208D50468E1
:1024500054E8003F43F0806344E80035002DF6D196
:1024600030BC01F059B8012030BC70470220FBE7B6
:1024700000800040704770472DE9F8430446D0F8CB
:1024800084001F4616460D46202851D1DDB1D6B135
:1024900094F8800001284BD0012084F880004FF090
:1024A0000008C4F88C802120C4F884001834FEF79A
:1024B00093FBA6878146E68754F8100C183CB0F5CC
:1024C000805F03D004E00120BDE8F883206920B1DB
:1024D0002E46002584F8808010E00026FAE780214F
:1024E000204601F06BF8B8B9C6B116F8010B2168A7
:1024F0008862B4F85600401EA4F85600B4F856009E
:102500004B464FF0000200970028E8D14FF0400101
:10251000204601F053F830B10320D5E735F8020B1F
:10252000C0F30800E3E72020C4F884000020CBE7D4
:102530000220C9E77047FEE72DE9F04786B0142175
:102540006846FDF730FF3D48C16C41F02001C16491
:10255000C16C01F020010591C16C41F00101C16421
:10256000C16C01F001010591C16C41F00201C1642F
:10257000C06CDFF8CC8000F0020005900022022140
:102580004046FEF724FBDFF8BC9040F231160022F3
:1025900031464846FEF71BFB4FF41C474FF0904A6C
:1025A000002239465046FEF712FB0220009001251A
:1025B0000024CDE90154694640460394FEF7DEF954
:1025C000932000904FF40410CDE901056946504670
:1025D000FEF7D4F90096CDE90154694648460394C4
:1025E000FEF7CCF90097CDE90154694650460394B3
:1025F000FEF7C4F9002211460620FEF753FB062021
:10260000FEF742FB002211460720FEF74BFB072096
:10261000FEF73AFB002211460A20FEF743FB0A2090
:10262000FEF732FB002211461720FEF73BFB172076
:10263000FEF72AFB06B0BDE8F0870000001002405C
:10264000001400480004004810B598B00024149409
:1026500015941C210DA81694FDF7A5FE342168469B
:10266000FDF7A1FE2848274901601021C0E90114A7
:1026700041F63F71C0E9031444618461FFF7F7FA42
:1026800008B172B6FEE71494159414A91E48169466
:10269000FFF7A4F808B172B6FEE76020CDE90D049B
:1026A0000F9410941194129400220DA916481394BB
:1026B000FFF74BFA08B172B6FEE704220DA91248E3
:1026C000FFF743FA08B172B6FEE700944FF40050EA
:1026D000CDE9044003940003CDE90840019402943D
:1026E000069407940A940B94694607480C94FFF7E4
:1026F0001BF808B172B6FEE70348FFF7FBF918B004
:1027000010BD0000002C0140B0000020174810B59B
:10271000154901604FF416514160002181600C227F
:10272000C160C0E904128161C161016241628162DC
:10273000FFF796FD08B172B6FEE700210B48FFF7E0
:10274000AEFB08B172B6FEE700210848FFF781FB37
:1027500008B172B6FEE70548FFF75AFB002801D022
:1027600072B6FEE710BD000000380140FC000020FA
:10277000174810B5154901604FF4E131416000215F
:1027800081600C22C160C0E904128161C1610162F3
:1027900041628162FFF764FD08B172B6FEE7002175
:1027A0000B48FFF77CFB08B172B6FEE70021084832
:1027B000FFF74FFB08B172B6FEE70548FFF728FBAD
:1027C000002801D072B6FEE710BD000000440040B2
:1027D0008C010020FEE7FEE770477047FEF702BA63
:1027E00000B593B038216846FDF7DDFD14210EA831
:1027F000FDF7D9FD0020FEF787FA0220C101039101
:10280000402104910421CDE9080100905521CDE932
:102810000A1007900C900D906846FEF767FD08B10E
:1028200072B6FEE70F200E9003200F90002010904C
:102830001190129004210EA8FEF710FC002801D080
:1028400072B6FEE713B000BD0248016841F47001A2
:102850000160704788ED00E02DE9F05FCD48FFF79B
:102860004AF8CD4CCE4EDFF83C93E068DFF838A351
:10287000401CE060C948DFF83483002500784FF041
:10288000010B01280FD0022823D0C94F042837D0CC
:1028900003284CD0082861D007287CD006287BD09C
:1028A00005287AD04CE189F800B08AF80050B8F8D1
:1028B0000000002823D001214FF09040FEF782F95C
:1028C0000028F7D0B8F800006080A0803188084464
:1028D00014E089F800508AF800B0B8F80000002829
:1028E000E8D002214FF09040FEF76CF90028E1D0CB
:1028F000B8F800006080A0803188081A30801DE19F
:1029000089F800508AF80050B8F800000028F6D086
:1029100010214FF09040FEF755F90028EFD000BF8E
:10292000B8F800006080A0803988084414E089F875
:1029300000B08AF800B0B8F800000028DFD080218D
:102940004FF09040FEF73EF90028D8D0B8F80000CC
:102950006080A0803988081A3880EFE089F800B0DC
:102960008AF800B0B8F800000028C8D080214FF0E5
:102970009040FEF727F9012806D101214FF0904041
:10298000FEF720F9012809D080214FF09040FEF792
:1029900019F958B111E01AE058E090E0B8F80000D9
:1029A0006080A580318801EB50012BE001214FF0C0
:1029B0009040FEF707F9012879D04FF0904680212A
:1029C0003046FEF7FFF8012870D1012135E089F883
:1029D00000B08AF800B0B8F80000002866D0802166
:1029E0004FF09040FEF7EEF888B102214FF0904092
:1029F000FEF7E8F858B16580B8F80000A08031888B
:102A0000A1EB500131803988A1EB5000A4E780216F
:102A10004FF09040FEF7D6F830B902214FF09040C9
:102A2000FEF7D0F8012843D04FF090468021304681
:102A3000FEF7C8F8012839D102213046FEF7C2F866
:102A4000A0BB89F800B08AF800B07FE789F8005091
:102A50008AF800B0B8F8000040B310214FF0904061
:102A6000FEF7B0F868B102214FF09040FEF7AAF8E7
:102A700038B1B8F800006080A5803188A1EB500122
:102A800037E010214FF09040FEF79CF830B902215A
:102A90004FF09040FEF796F8012809D04FF090468D
:102AA00010213046FEF78EF8012806D046E03BE0C4
:102AB00089F800508AF800B01AE702213AE089F854
:102AC00000508AF80050B8F8000060B310214FF0B1
:102AD0009040FEF777F888B101214FF09040FEF763
:102AE00071F858B16580B8F80000A080318801EB1A
:102AF00050013180398801EB50002DE710214FF053
:102B00009040FEF75FF830B901214FF09040FEF79A
:102B100059F8012808D04FF0904610213046FEF7B2
:102B200051F8012805D009E089F800B08AF8005072
:102B3000C8E601213046FEF745F8D0B1A8F80050AC
:102B40004FF0904699F800204FF400613046FEF7B0
:102B50003EF89AF800204FF480613046FEF737F8CF
:102B6000608814494FF47A6240B1401E60800A6068
:102B700005E089F800508AF80050D1E60D600D4953
:102B8000A088091D20B1401EA0800A60BDE8F09F0A
:102B90000D60FBE7B00000202400002000000020B2
:102BA0000C00002021000020220000200600002050
:102BB0000E000020342C01402DE9F0430268234B25
:102BC000234D244E244C4FF08049984207D048456D
:102BD00005D0A84203D0B04201D0A04203D122F0D8
:102BE00070074A683A431D4FDFF874C0DFF87480FD
:102BF00098420DD048450BD0A84209D0B04207D02A
:102C0000A04205D0B84203D0604501D0404503D171
:102C100022F44075CA682A434D6922F080022A4393
:102C200002608A68C2620A688262984207D0A04243
:102C300005D0B84203D0604501D0404501D10969B3
:102C4000016301214161BDE8F0830000002C0140D7
:102C500000040040000800400034014000400140F2
:102C6000004401400048014010B501F01F0301215C
:102C7000046A99408C430462016A9A4011430162DC
:102C800010BD00002DE9F043026A22F00102026249
:102C9000056A436882691C4C25F0020522400C68D5
:102CA00022F0030214438A68194E2A43174D194F24
:102CB000DFF864C0DFF86490A84207D0B04205D0C6
:102CC000B84203D0604501D0484506D122F008083B
:102CD000CA6842EA080222F00402A84207D0B042C1
:102CE00005D0B84203D0604501D0484505D14D69B3
:102CF00023F440731D438B692B434360846149680F
:102D000041630262BDE8F0838FFFFEFF002C0140AB
:102D100000340140004001400044014000480140AF
:102D2000F0B5026A22F010020262056A4268836905
:102D3000194C1B4E23400C6823F4407343EA0424CF
:102D400025F020038D6843EA0513144DA84201D0F5
:102D5000B04206D1CF6823F0800343EA071323F083
:102D60004003A8420AD0B04208D00E4DA84205D078
:102D70000D4DA84202D00D4DA84207D14D6922F455
:102D8000406242EA85028D6942EA850242608461BE
:102D9000496881630362F0BDFF8FFFFE002C014094
:102DA000003401400040014000440140004801401F
:102DB000F0B5026A22F480720262056A4368C26951
:102DC000194C1B4E22400C6822F00302144325F4D8
:102DD00000728D6842EA0522144DA84201D0B0422B
:102DE00006D1CF6822F4006242EA072222F4806210
:102DF000A8420AD0B04208D00E4DA84205D00E4DD0
:102E0000A84202D00D4DA84207D14D6923F440538A
:102E100043EA05138D6943EA05134360C4614968B9
:102E2000C1630262F0BD00008FFFFEFF002C014075
:102E3000003401400040014000440140004801408E
:102E4000F0B5026A22F480520262056A4268C369E0
:102E5000194C1B4E23400C6823F4407343EA0424AE
:102E600025F400538D6843EA0533144DA84201D080
:102E7000B04206D1CF6823F4004343EA073323F47A
:102E80008043A8420AD0B04208D00E4DA84205D0D7
:102E90000D4DA84202D00D4DA84207D14D6922F434
:102EA000404242EA85128D6942EA85124260C4615D
:102EB000496801640362F0BDFF8FFFFE002C0140F2
:102EC00000340140004001400044014000480140FE
:102ED00030B5026A22F480320262046A4268036DED
:102EE000114D2B400D681D4324F400330C8943EA37
:102EF00004430E4CA0420BD00D4CA04208D00D4C08
:102F0000A04205D00C4CA04202D00C4CA04204D1EF
:102F10004C6922F4803242EA042242600565496825
:102F20008164036230BD00008FFFFEFF002C014072
:102F3000003401400040014000440140004801408D
:102F400030B5026A22F480120262046A4268036D9C
:102F5000114D24F400142B400D6843EA05230D891C
:102F600044EA05540D4DA8420BD00D4DA84208D09F
:102F70000C4DA84205D00C4DA84202D00B4DA842E2
:102F800004D14D6922F4802242EA85224260036521
:102F90004968C164046230BDFF8FFFFE002C014010
:102FA000003401400040014000440140004801401D
:102FB00030B5416EB9B1026891689268C1F342615F
:102FC0000B4B520F9C5CE50003F10804A25CB5FBBF
:102FD000F2F2A0F86A205A5C615CD200B2FBF1F117
:102FE000A0F8681030BD0121A0F86A10F8E70000D1
:102FF0008A3B000890F82810C90706D001684A6883
:10300000C36A22F400321A434A6090F828108907F4
:1030100006D501684A68036B22F480321A434A607D
:1030200090F82810490706D501684A68436B22F4D6
:1030300080221A434A6090F82810090706D50168D3
:103040004A68836B22F400421A434A6090F82810C1
:10305000C90606D501688A68C36B22F480521A43F8
:103060008A6090F82810890606D501688A68036C82
:1030700022F400521A438A6090F82810490611D5AC
:1030800001684A68436C22F480121A434A60416C1A
:10309000B1F5801F06D101684A68836C22F4C00232
:1030A0001A434A6090F82810090606D501684A6854
:1030B000C06C22F4002202434A607047F8B5002633
:1030C0000446C0F88C60FDF787FD0546206800685F
:1030D0006FF07E47000708D52B4600224FF4001101
:1030E0002046009700F06AFA60B92068006840073F
:1030F0000AD52B4600224FF480012046009700F0AD
:103100005DFA08B10320F8BD2020C4F88400C4F89B
:10311000880044F86C6F00202675F8BD10B5806AF1
:103120000021A0F85E10A0F85610FEF728FF10BD91
:1031300070B5846AD4F88400D4F88850216889680E
:103140004FF00006090606D5212804D1A4F85660E0
:10315000204600F08FF820688068400606D5222DB2
:1031600004D1A4F85E60204600F05AF8D4F88C0030
:1031700040F01000C4F88C002046FEF700FF70BD40
:1031800010B50146806A0968096889062ED40021B5
:10319000A0F85E10016851E8002F22F4807241E827
:1031A0000023002BF6D10168083151E8002F22F0EE
:1031B000010241E80023002BF5D10168083151E8F4
:1031C000002F22F0400241E80023002BF5D12021FE
:1031D000C0F88810C16E012908D1026852E8001FAA
:1031E00021F0100142E80013002BF6D1C16E012935
:1031F00002D0FFF73FF910BDB0F85C10FEF727FED4
:1032000010BD10B5806AC16E012902D0FFF733F9F5
:1032100010BDB0F85C104908FEF719FE10BD0000A3
:1032200010B5026852E8001F21F4907142E80013C3
:10323000002BF6D10E4B0268083252E8001F1940ED
:1032400042E80014002CF6D1C16E012908D10168B2
:1032500051E8002F22F0100241E80023002BF6D1A4
:103260002021C0F888100021C166016710BD000050
:10327000FEFFFFEF026852E8001F21F0C00142E8A4
:103280000013002BF6D10168083151E8002F22F419
:10329000000241E80023002BF5D12021C0F8841062
:1032A000704700002DE9F0410446016880682269FA
:1032B000E3691043626900251A431043DFF82CC20A
:1032C0000A688B4B1A4002430A6020684168E26832
:1032D00021F44051114341602168A069614501D04A
:1032E000226A10438A68834B1A4002438A6020682E
:1032F000C16A626A21F00F011143C1627E492368ED
:103300007E488B420DD1D0F8880010F0030006D023
:10331000012855D0022842D003283FD152E0012095
:103320003DE077498B420BD1D0F8880010F00C00BB
:1033300035D0042833D0082840D00C282ED141E0C5
:1033400070498B420BD1D0F8880010F0300026D0A5
:10335000102835D0202831D030281FD132E06A49DA
:103360008B420BD1D0F8880010F0C00017D0402855
:1033700026D0802822D0C02810D123E063450DD16B
:10338000D0F8880010F4406009D0B0F5806F17D0F5
:10339000B0F5006F12D0B0F5406F13D010205B492C
:1033A0005B4F00264FF4004263453BD160B10228D9
:1033B00013D004280BD0082872D10DE00220EEE7CC
:1033C0000420ECE70820EAE7FDF736FF01E0FDF70F
:1033D00057FF010001D17CE01146606A37F81020E8
:1033E0006768B1FBF2F007EB4703834270D8B0EB9C
:1033F000073F6DD8002308461946FCF75DFF090218
:1034000041EA106102027808101871413A4600231F
:10341000FCF752FF3F4AA0F54071914258D821680D
:10342000C86056E0E3694FF6EF7893422CD1092843
:103430004ED2DFE800F00508114D0D4D4D4D100046
:10344000FDF7FAFE01E0FDF709FF010004D140E0BD
:10345000FDF716FFF9E71146606A37F81000B1FB77
:10346000F0F04100606801EB5001B1FBF0F0A0F119
:10347000100141452CD84FF6F0710140C0F34200D5
:1034800001432068C16024E0092821D2DFE800F070
:10349000050912200E2020201100FDF7CDFE02E0CC
:1034A00016E0FDF7DBFE010004D112E0FDF7E8FEB7
:1034B000F9E71146606A37F81000B1FBF0F1606877
:1034C00001EB5001B1FBF0F0A0F1100141450AD928
:1034D00001250120A4F86A0024F8680F2846A66098
:1034E000E660BDE8F08180B299E70000008000400E
:1034F000F369FFCFFFF4FF110038014000100240D4
:103500000044004000480040004C00400024F4000B
:10351000723B0008FFFC0F0070B58165A0F85C20CD
:1035200000250446C0F88C502220C4F88800E06FC3
:10353000D8B11F49C162E16F1E4813460863E16FAD
:103540001D484863E06F8563A66D216832462431CB
:10355000E06FFDF7ADF940B11020C4F88C0004F81D
:10356000805F2020A060012070BD84F88050206919
:1035700040B1216851E8000F40F4807041E800023A
:10358000002AF6D12068083050E8001F41F0010100
:1035900040E80012002AF5D12068083050E8001FEA
:1035A00041F0400140E80012002AF5D1002070BD32
:1035B0008131000803320008313100082DE9F0475D
:1035C0009A4617460E4604464FF000094FF0200871
:1035D000089D4AE0681C48D0FDF7FEFAA0EB0A00FF
:1035E000A8422AD84DB32068016849073DD5C06973
:1035F000C043000539D421684FF400600862206898
:1036000050E8001F21F4D07140E80012002AF6D1E2
:103610002068083050E8001F21F0010140E8001246
:10362000002AF5D144F8848FC4F80480C4F80880D7
:1036300004F8049C0320BDE8F087216851E8000FDE
:1036400020F4D07041E80002002AF6D1206808304A
:1036500050E8001F21F0010140E80012002AF5D1D6
:1036600044F8848FC4F80480E2E72068C06936EA31
:10367000000004D00020B842ACD00020DBE70120DD
:10368000F9E7000070B55148FEF77AFC4F48504901
:10369000006888427ED1C169C943C9067AD4102125
:1036A00001624A48FEF723FC4A48006840684A49DC
:1036B00040F2E2420024C868B2FBF0F008704748CC
:1036C000CC600278DD2A3FD1C278DD2A3CD14A881D
:1036D00002BB8988F1B9457841493123414A012D1E
:1036E00005D0022D10D0E5B1032D2AD02CE0807832
:1036F00020B1012804D0022804D025E001201AE0DE
:10370000082018E0052016E0807820B1012804D0B8
:10371000022804D018E002200DE007200BE006206C
:1037200009E08078012803D0022803D030B10BE0F3
:10373000032000E004200870138005E00C70148062
:1037400002E0807803282AD0234CAA2010344FF0BE
:103750009045207001212846FDF734FA60B300201F
:10376000607002212846FDF72DFA38B30020A070C2
:1037700080212846FDF726FA10B30020E0701021C2
:103780002846FDF71FFAE8B1002020716422134992
:103790000E4800E018E0BDE87040FEF741BEBFF300
:1037A0004F8F11480168114A01F4E0611143016033
:1037B000BFF34F8F00BFFDE70120D1E70120D6E71F
:1037C0000120DBE70120E0E770BD0000FC000020E5
:1037D000003801401C020020240000204C00002082
:1037E00000000020060000200CED00E00400FA05B7
:1037F0000148FEF7C5BB00008C010020FEE7090769
:10380000090E002804DB00F1E02080F80014704766
:1038100000F00F0000F1E02080F8141D7047000058
:10382000BFF34F8F05480168054A01F4E061114379
:103830000160BFF34F8F00BFFDE700000CED00E01B
:103840000400FA0530B52D482D492E4A0088098814
:103850002E4BA0EB510001B22B48D1801B88008871
:103860004FF6FF74A0EB530000B21081284B294A99
:10387000002911DD002805DD4FF007051D7081428C
:1038800019DC06E031DA06251D70814201DD404277
:1038900011E004EA41001EE010DA002806DA4FF0D9
:1038A00005051D708142F2DC484204E020DD082558
:1038B0001D708142F8DD04EA40000CE00DD10028C3
:1038C00003DD4FF00301197005E04FF0040119709A
:1038D00001DAC0F10000108030BD20B14FF00000CF
:1038E0001080187030BD002902DD0220187002E03F
:1038F000012018704942118030BD00000C000020EA
:1039000008000020240000200E0000200A000020F3
:10391000000000200600002008B5FDF76BF9FEF757
:103920005FFFFEF709FEFEF78FFE8748816C41F0CE
:1039300004018164816C01F004010091816C41F00B
:1039400001018164806C002200F0010000901146AA
:103950000B20FDF7A7F90B20FDF796F90022114681
:103960000C20FDF79FF90C20FDF78EF9FEF700FF04
:10397000FEF7CCFE7548FDF781FF00217348FEF786
:10398000C7F904217148FEF7C3F9714C00221021D8
:103990002046FDF71CF901224FF09046D103304636
:1039A000FDF715F9012202216A48FDF710F90022FE
:1039B00020212046FDF70BF9012211033046FDF7C7
:1039C00006F9012211462046FDF701F93220FCF7E5
:1039D000B5FF614C00251E206570A570E57025714E
:1039E000FCF7ACFFDFF874A11027CAF800700AF1E9
:1039F000040B42F21071CBF800104FF0010884F86C
:103A0000008041F28839A4F8069008E001214FF0C7
:103A10009040FDF7D7F828B10120FCF78FFF6078C0
:103A20000028F3D084F801801E20FCF787FF0220D5
:103A300020704E46A4F8069002E00120FCF77EFFBD
:103A4000A0780028F9D01E20FCF778FF2089A0F28A
:103A50006C71B1F5C87F42D8D146CAF8007084F8BD
:103A600000804008E0800A20FCF768FFDFF8F0A043
:103A700002E00120FCF762FFBAF8000018B13948F3
:103A800000880028F5D1C9F800704FF0040A84F8C6
:103A900000A0E68008E010214FF09040FDF792F87A
:103AA00028B10120FCF74AFFE0780028F3D084F821
:103AB00003801E20FCF742FF03202070E68002E016
:103AC0000120FCF73BFF20790028F9D01E20FCF7ED
:103AD00035FF6089A0F24C41B1F5167F01D9FFF79F
:103AE0009FFEC9F8007084F800A04008E0801E2006
:103AF000FCF724FF4FF4FA51CBF80010208940085E
:103B0000A08160894008E08110484C30006801685D
:103B100041F0100101600D496422643901F1B000E7
:103B2000FEF77EFC607910B16571FFF78BFE0A200D
:103B3000FCF704FF0849054864230D221031DC30EE
:103B4000FEF79AFCEEE7000000100240B0000020F3
:103B5000000400480014004800000020282C014008
:103B600026000020280000204FF04070E1EE100AEF
:103B70007047010002000400060008000A000C0063
:103B80001000200040008000000101010103070136
:103B90000000080402040801010100000000000008
:103BA00000000102030406070809000000000102EA
:103BB00003040000D43B0008000000204C0000007B
:103BC00014020008203C00084C000020F40800000B
:103BD00030020008010000000000000000000000AA
:103BE000E803BC0248656C6C6F20576F726C6421EF
:103BF0000A010101010000000000000000000000B7
:103C000000000000000000000000000000000000B4
:103C10001000000001000000000000000024F4007B
:04000005080001D915
:00000001FF
